{"contracts/MessageStorage.sol":{"MessageStorage":{"abi":[{"inputs":[{"internalType":"string","name":"initialMessage","type":"string"}],"stateMutability":"nonpayable","type":"constructor"},{"inputs":[],"name":"getMessage","outputs":[{"internalType":"string","name":"","type":"string"}],"stateMutability":"view","type":"function"},{"inputs":[{"internalType":"string","name":"newMessage","type":"string"}],"name":"setMessage","outputs":[],"stateMutability":"nonpayable","type":"function"}],"evm":{"bytecode":{"linkReferences":{},"object":"60806040523480156200001157600080fd5b5060405162000d2f38038062000d2f833981810160405281019062000037919062000224565b8060009081620000489190620004c0565b5033600160006101000a81548173ffffffffffffffffffffffffffffffffffffffff021916908373ffffffffffffffffffffffffffffffffffffffff16021790555050620005a7565b6000604051905090565b600080fd5b600080fd5b600080fd5b600080fd5b6000601f19601f8301169050919050565b7f4e487b7100000000000000000000000000000000000000000000000000000000600052604160045260246000fd5b620000fa82620000af565b810181811067ffffffffffffffff821117156200011c576200011b620000c0565b5b80604052505050565b60006200013162000091565b90506200013f8282620000ef565b919050565b600067ffffffffffffffff821115620001625762000161620000c0565b5b6200016d82620000af565b9050602081019050919050565b60005b838110156200019a5780820151818401526020810190506200017d565b60008484015250505050565b6000620001bd620001b78462000144565b62000125565b905082815260208101848484011115620001dc57620001db620000aa565b5b620001e98482856200017a565b509392505050565b600082601f830112620002095762000208620000a5565b5b81516200021b848260208601620001a6565b91505092915050565b6000602082840312156200023d576200023c6200009b565b5b600082015167ffffffffffffffff8111156200025e576200025d620000a0565b5b6200026c84828501620001f1565b91505092915050565b600081519050919050565b7f4e487b7100000000000000000000000000000000000000000000000000000000600052602260045260246000fd5b60006002820490506001821680620002c857607f821691505b602082108103620002de57620002dd62000280565b5b50919050565b60008190508160005260206000209050919050565b60006020601f8301049050919050565b600082821b905092915050565b600060088302620003487fffffffffffffffffffffffffffffffffffffffffffffffffffffffffffffffff8262000309565b62000354868362000309565b95508019841693508086168417925050509392505050565b6000819050919050565b6000819050919050565b6000620003a16200039b62000395846200036c565b62000376565b6200036c565b9050919050565b6000819050919050565b620003bd8362000380565b620003d5620003cc82620003a8565b84845462000316565b825550505050565b600090565b620003ec620003dd565b620003f9818484620003b2565b505050565b5b81811015620004215762000415600082620003e2565b600181019050620003ff565b5050565b601f82111562000470576200043a81620002e4565b6200044584620002f9565b8101602085101562000455578190505b6200046d6200046485620002f9565b830182620003fe565b50505b505050565b600082821c905092915050565b6000620004956000198460080262000475565b1980831691505092915050565b6000620004b0838362000482565b9150826002028217905092915050565b620004cb8262000275565b67ffffffffffffffff811115620004e757620004e6620000c0565b5b620004f38254620002af565b6200050082828562000425565b600060209050601f83116001811462000538576000841562000523578287015190505b6200052f8582620004a2565b8655506200059f565b601f1984166200054886620002e4565b60005b8281101562000572578489015182556001820191506020850194506020810190506200054b565b868310156200059257848901516200058e601f89168262000482565b8355505b6001600288020188555050505b505050505050565b61077880620005b76000396000f3fe608060405234801561001057600080fd5b50600436106100365760003560e01c8063368b87721461003b578063ce6d41de14610057575b600080fd5b61005560048036038101906100509190610304565b610075565b005b61005f610118565b60405161006c91906103cc565b60405180910390f35b600160009054906101000a900473ffffffffffffffffffffffffffffffffffffffff1673ffffffffffffffffffffffffffffffffffffffff163373ffffffffffffffffffffffffffffffffffffffff1614610105576040517f08c379a00000000000000000000000000000000000000000000000000000000081526004016100fc9061043a565b60405180910390fd5b80600090816101149190610670565b5050565b60606000805461012790610489565b80601f016020809104026020016040519081016040528092919081815260200182805461015390610489565b80156101a05780601f10610175576101008083540402835291602001916101a0565b820191906000526020600020905b81548152906001019060200180831161018357829003601f168201915b5050505050905090565b6000604051905090565b600080fd5b600080fd5b600080fd5b600080fd5b6000601f19601f8301169050919050565b7f4e487b7100000000000000000000000000000000000000000000000000000000600052604160045260246000fd5b610211826101c8565b810181811067ffffffffffffffff821117156102305761022f6101d9565b5b80604052505050565b60006102436101aa565b905061024f8282610208565b919050565b600067ffffffffffffffff82111561026f5761026e6101d9565b5b610278826101c8565b9050602081019050919050565b82818337600083830152505050565b60006102a76102a284610254565b610239565b9050828152602081018484840111156102c3576102c26101c3565b5b6102ce848285610285565b509392505050565b600082601f8301126102eb576102ea6101be565b5b81356102fb848260208601610294565b91505092915050565b60006020828403121561031a576103196101b4565b5b600082013567ffffffffffffffff811115610338576103376101b9565b5b610344848285016102d6565b91505092915050565b600081519050919050565b600082825260208201905092915050565b60005b8381101561038757808201518184015260208101905061036c565b60008484015250505050565b600061039e8261034d565b6103a88185610358565b93506103b8818560208601610369565b6103c1816101c8565b840191505092915050565b600060208201905081810360008301526103e68184610393565b905092915050565b7f4f6e6c792061646d696e2063616e2073657420746865206d6573736167650000600082015250565b6000610424601e83610358565b915061042f826103ee565b602082019050919050565b6000602082019050818103600083015261045381610417565b9050919050565b7f4e487b7100000000000000000000000000000000000000000000000000000000600052602260045260246000fd5b600060028204905060018216806104a157607f821691505b6020821081036104b4576104b361045a565b5b50919050565b60008190508160005260206000209050919050565b60006020601f8301049050919050565b600082821b905092915050565b60006008830261051c7fffffffffffffffffffffffffffffffffffffffffffffffffffffffffffffffff826104df565b61052686836104df565b95508019841693508086168417925050509392505050565b6000819050919050565b6000819050919050565b600061056d6105686105638461053e565b610548565b61053e565b9050919050565b6000819050919050565b61058783610552565b61059b61059382610574565b8484546104ec565b825550505050565b600090565b6105b06105a3565b6105bb81848461057e565b505050565b5b818110156105df576105d46000826105a8565b6001810190506105c1565b5050565b601f821115610624576105f5816104ba565b6105fe846104cf565b8101602085101561060d578190505b610621610619856104cf565b8301826105c0565b50505b505050565b600082821c905092915050565b600061064760001984600802610629565b1980831691505092915050565b60006106608383610636565b9150826002028217905092915050565b6106798261034d565b67ffffffffffffffff811115610692576106916101d9565b5b61069c8254610489565b6106a78282856105e3565b600060209050601f8311600181146106da57600084156106c8578287015190505b6106d28582610654565b86555061073a565b601f1984166106e8866104ba565b60005b82811015610710578489015182556001820191506020850194506020810190506106eb565b8683101561072d5784890151610729601f891682610636565b8355505b6001600288020188555050505b50505050505056fea2646970667358221220971c9835a8b32d3c13d959a5ecae390525ea879ceabc63ab79e68e98549b1eb364736f6c63430008140033","opcodes":"PUSH1 0x80 PUSH1 0x40 MSTORE CALLVALUE DUP1 ISZERO PUSH3 0x11 JUMPI PUSH1 0x0 DUP1 REVERT JUMPDEST POP PUSH1 0x40 MLOAD PUSH3 0xD2F CODESIZE SUB DUP1 PUSH3 0xD2F DUP4 CODECOPY DUP2 DUP2 ADD PUSH1 0x40 MSTORE DUP2 ADD SWAP1 PUSH3 0x37 SWAP2 SWAP1 PUSH3 0x224 JUMP JUMPDEST DUP1 PUSH1 0x0 SWAP1 DUP2 PUSH3 0x48 SWAP2 SWAP1 PUSH3 0x4C0 JUMP JUMPDEST POP CALLER PUSH1 0x1 PUSH1 0x0 PUSH2 0x100 EXP DUP2 SLOAD DUP2 PUSH20 0xFFFFFFFFFFFFFFFFFFFFFFFFFFFFFFFFFFFFFFFF MUL NOT AND SWAP1 DUP4 PUSH20 0xFFFFFFFFFFFFFFFFFFFFFFFFFFFFFFFFFFFFFFFF AND MUL OR SWAP1 SSTORE POP POP PUSH3 0x5A7 JUMP JUMPDEST PUSH1 0x0 PUSH1 0x40 MLOAD SWAP1 POP SWAP1 JUMP JUMPDEST PUSH1 0x0 DUP1 REVERT JUMPDEST PUSH1 0x0 DUP1 REVERT JUMPDEST PUSH1 0x0 DUP1 REVERT JUMPDEST PUSH1 0x0 DUP1 REVERT JUMPDEST PUSH1 0x0 PUSH1 0x1F NOT PUSH1 0x1F DUP4 ADD AND SWAP1 POP SWAP2 SWAP1 POP JUMP JUMPDEST PUSH32 0x4E487B7100000000000000000000000000000000000000000000000000000000 PUSH1 0x0 MSTORE PUSH1 0x41 PUSH1 0x4 MSTORE PUSH1 0x24 PUSH1 0x0 REVERT JUMPDEST PUSH3 0xFA DUP3 PUSH3 0xAF JUMP JUMPDEST DUP2 ADD DUP2 DUP2 LT PUSH8 0xFFFFFFFFFFFFFFFF DUP3 GT OR ISZERO PUSH3 0x11C JUMPI PUSH3 0x11B PUSH3 0xC0 JUMP JUMPDEST JUMPDEST DUP1 PUSH1 0x40 MSTORE POP POP POP JUMP JUMPDEST PUSH1 0x0 PUSH3 0x131 PUSH3 0x91 JUMP JUMPDEST SWAP1 POP PUSH3 0x13F DUP3 DUP3 PUSH3 0xEF JUMP JUMPDEST SWAP2 SWAP1 POP JUMP JUMPDEST PUSH1 0x0 PUSH8 0xFFFFFFFFFFFFFFFF DUP3 GT ISZERO PUSH3 0x162 JUMPI PUSH3 0x161 PUSH3 0xC0 JUMP JUMPDEST JUMPDEST PUSH3 0x16D DUP3 PUSH3 0xAF JUMP JUMPDEST SWAP1 POP PUSH1 0x20 DUP2 ADD SWAP1 POP SWAP2 SWAP1 POP JUMP JUMPDEST PUSH1 0x0 JUMPDEST DUP4 DUP2 LT ISZERO PUSH3 0x19A JUMPI DUP1 DUP3 ADD MLOAD DUP2 DUP5 ADD MSTORE PUSH1 0x20 DUP2 ADD SWAP1 POP PUSH3 0x17D JUMP JUMPDEST PUSH1 0x0 DUP5 DUP5 ADD MSTORE POP POP POP POP JUMP JUMPDEST PUSH1 0x0 PUSH3 0x1BD PUSH3 0x1B7 DUP5 PUSH3 0x144 JUMP JUMPDEST PUSH3 0x125 JUMP JUMPDEST SWAP1 POP DUP3 DUP2 MSTORE PUSH1 0x20 DUP2 ADD DUP5 DUP5 DUP5 ADD GT ISZERO PUSH3 0x1DC JUMPI PUSH3 0x1DB PUSH3 0xAA JUMP JUMPDEST JUMPDEST PUSH3 0x1E9 DUP5 DUP3 DUP6 PUSH3 0x17A JUMP JUMPDEST POP SWAP4 SWAP3 POP POP POP JUMP JUMPDEST PUSH1 0x0 DUP3 PUSH1 0x1F DUP4 ADD SLT PUSH3 0x209 JUMPI PUSH3 0x208 PUSH3 0xA5 JUMP JUMPDEST JUMPDEST DUP2 MLOAD PUSH3 0x21B DUP5 DUP3 PUSH1 0x20 DUP7 ADD PUSH3 0x1A6 JUMP JUMPDEST SWAP2 POP POP SWAP3 SWAP2 POP POP JUMP JUMPDEST PUSH1 0x0 PUSH1 0x20 DUP3 DUP5 SUB SLT ISZERO PUSH3 0x23D JUMPI PUSH3 0x23C PUSH3 0x9B JUMP JUMPDEST JUMPDEST PUSH1 0x0 DUP3 ADD MLOAD PUSH8 0xFFFFFFFFFFFFFFFF DUP2 GT ISZERO PUSH3 0x25E JUMPI PUSH3 0x25D PUSH3 0xA0 JUMP JUMPDEST JUMPDEST PUSH3 0x26C DUP5 DUP3 DUP6 ADD PUSH3 0x1F1 JUMP JUMPDEST SWAP2 POP POP SWAP3 SWAP2 POP POP JUMP JUMPDEST PUSH1 0x0 DUP2 MLOAD SWAP1 POP SWAP2 SWAP1 POP JUMP JUMPDEST PUSH32 0x4E487B7100000000000000000000000000000000000000000000000000000000 PUSH1 0x0 MSTORE PUSH1 0x22 PUSH1 0x4 MSTORE PUSH1 0x24 PUSH1 0x0 REVERT JUMPDEST PUSH1 0x0 PUSH1 0x2 DUP3 DIV SWAP1 POP PUSH1 0x1 DUP3 AND DUP1 PUSH3 0x2C8 JUMPI PUSH1 0x7F DUP3 AND SWAP2 POP JUMPDEST PUSH1 0x20 DUP3 LT DUP2 SUB PUSH3 0x2DE JUMPI PUSH3 0x2DD PUSH3 0x280 JUMP JUMPDEST JUMPDEST POP SWAP2 SWAP1 POP JUMP JUMPDEST PUSH1 0x0 DUP2 SWAP1 POP DUP2 PUSH1 0x0 MSTORE PUSH1 0x20 PUSH1 0x0 KECCAK256 SWAP1 POP SWAP2 SWAP1 POP JUMP JUMPDEST PUSH1 0x0 PUSH1 0x20 PUSH1 0x1F DUP4 ADD DIV SWAP1 POP SWAP2 SWAP1 POP JUMP JUMPDEST PUSH1 0x0 DUP3 DUP3 SHL SWAP1 POP SWAP3 SWAP2 POP POP JUMP JUMPDEST PUSH1 0x0 PUSH1 0x8 DUP4 MUL PUSH3 0x348 PUSH32 0xFFFFFFFFFFFFFFFFFFFFFFFFFFFFFFFFFFFFFFFFFFFFFFFFFFFFFFFFFFFFFFFF DUP3 PUSH3 0x309 JUMP JUMPDEST PUSH3 0x354 DUP7 DUP4 PUSH3 0x309 JUMP JUMPDEST SWAP6 POP DUP1 NOT DUP5 AND SWAP4 POP DUP1 DUP7 AND DUP5 OR SWAP3 POP POP POP SWAP4 SWAP3 POP POP POP JUMP JUMPDEST PUSH1 0x0 DUP2 SWAP1 POP SWAP2 SWAP1 POP JUMP JUMPDEST PUSH1 0x0 DUP2 SWAP1 POP SWAP2 SWAP1 POP JUMP JUMPDEST PUSH1 0x0 PUSH3 0x3A1 PUSH3 0x39B PUSH3 0x395 DUP5 PUSH3 0x36C JUMP JUMPDEST PUSH3 0x376 JUMP JUMPDEST PUSH3 0x36C JUMP JUMPDEST SWAP1 POP SWAP2 SWAP1 POP JUMP JUMPDEST PUSH1 0x0 DUP2 SWAP1 POP SWAP2 SWAP1 POP JUMP JUMPDEST PUSH3 0x3BD DUP4 PUSH3 0x380 JUMP JUMPDEST PUSH3 0x3D5 PUSH3 0x3CC DUP3 PUSH3 0x3A8 JUMP JUMPDEST DUP5 DUP5 SLOAD PUSH3 0x316 JUMP JUMPDEST DUP3 SSTORE POP POP POP POP JUMP JUMPDEST PUSH1 0x0 SWAP1 JUMP JUMPDEST PUSH3 0x3EC PUSH3 0x3DD JUMP JUMPDEST PUSH3 0x3F9 DUP2 DUP5 DUP5 PUSH3 0x3B2 JUMP JUMPDEST POP POP POP JUMP JUMPDEST JUMPDEST DUP2 DUP2 LT ISZERO PUSH3 0x421 JUMPI PUSH3 0x415 PUSH1 0x0 DUP3 PUSH3 0x3E2 JUMP JUMPDEST PUSH1 0x1 DUP2 ADD SWAP1 POP PUSH3 0x3FF JUMP JUMPDEST POP POP JUMP JUMPDEST PUSH1 0x1F DUP3 GT ISZERO PUSH3 0x470 JUMPI PUSH3 0x43A DUP2 PUSH3 0x2E4 JUMP JUMPDEST PUSH3 0x445 DUP5 PUSH3 0x2F9 JUMP JUMPDEST DUP2 ADD PUSH1 0x20 DUP6 LT ISZERO PUSH3 0x455 JUMPI DUP2 SWAP1 POP JUMPDEST PUSH3 0x46D PUSH3 0x464 DUP6 PUSH3 0x2F9 JUMP JUMPDEST DUP4 ADD DUP3 PUSH3 0x3FE JUMP JUMPDEST POP POP JUMPDEST POP POP POP JUMP JUMPDEST PUSH1 0x0 DUP3 DUP3 SHR SWAP1 POP SWAP3 SWAP2 POP POP JUMP JUMPDEST PUSH1 0x0 PUSH3 0x495 PUSH1 0x0 NOT DUP5 PUSH1 0x8 MUL PUSH3 0x475 JUMP JUMPDEST NOT DUP1 DUP4 AND SWAP2 POP POP SWAP3 SWAP2 POP POP JUMP JUMPDEST PUSH1 0x0 PUSH3 0x4B0 DUP4 DUP4 PUSH3 0x482 JUMP JUMPDEST SWAP2 POP DUP3 PUSH1 0x2 MUL DUP3 OR SWAP1 POP SWAP3 SWAP2 POP POP JUMP JUMPDEST PUSH3 0x4CB DUP3 PUSH3 0x275 JUMP JUMPDEST PUSH8 0xFFFFFFFFFFFFFFFF DUP2 GT ISZERO PUSH3 0x4E7 JUMPI PUSH3 0x4E6 PUSH3 0xC0 JUMP JUMPDEST JUMPDEST PUSH3 0x4F3 DUP3 SLOAD PUSH3 0x2AF JUMP JUMPDEST PUSH3 0x500 DUP3 DUP3 DUP6 PUSH3 0x425 JUMP JUMPDEST PUSH1 0x0 PUSH1 0x20 SWAP1 POP PUSH1 0x1F DUP4 GT PUSH1 0x1 DUP2 EQ PUSH3 0x538 JUMPI PUSH1 0x0 DUP5 ISZERO PUSH3 0x523 JUMPI DUP3 DUP8 ADD MLOAD SWAP1 POP JUMPDEST PUSH3 0x52F DUP6 DUP3 PUSH3 0x4A2 JUMP JUMPDEST DUP7 SSTORE POP PUSH3 0x59F JUMP JUMPDEST PUSH1 0x1F NOT DUP5 AND PUSH3 0x548 DUP7 PUSH3 0x2E4 JUMP JUMPDEST PUSH1 0x0 JUMPDEST DUP3 DUP2 LT ISZERO PUSH3 0x572 JUMPI DUP5 DUP10 ADD MLOAD DUP3 SSTORE PUSH1 0x1 DUP3 ADD SWAP2 POP PUSH1 0x20 DUP6 ADD SWAP5 POP PUSH1 0x20 DUP2 ADD SWAP1 POP PUSH3 0x54B JUMP JUMPDEST DUP7 DUP4 LT ISZERO PUSH3 0x592 JUMPI DUP5 DUP10 ADD MLOAD PUSH3 0x58E PUSH1 0x1F DUP10 AND DUP3 PUSH3 0x482 JUMP JUMPDEST DUP4 SSTORE POP JUMPDEST PUSH1 0x1 PUSH1 0x2 DUP9 MUL ADD DUP9 SSTORE POP POP POP JUMPDEST POP POP POP POP POP POP JUMP JUMPDEST PUSH2 0x778 DUP1 PUSH3 0x5B7 PUSH1 0x0 CODECOPY PUSH1 0x0 RETURN INVALID PUSH1 0x80 PUSH1 0x40 MSTORE CALLVALUE DUP1 ISZERO PUSH2 0x10 JUMPI PUSH1 0x0 DUP1 REVERT JUMPDEST POP PUSH1 0x4 CALLDATASIZE LT PUSH2 0x36 JUMPI PUSH1 0x0 CALLDATALOAD PUSH1 0xE0 SHR DUP1 PUSH4 0x368B8772 EQ PUSH2 0x3B JUMPI DUP1 PUSH4 0xCE6D41DE EQ PUSH2 0x57 JUMPI JUMPDEST PUSH1 0x0 DUP1 REVERT JUMPDEST PUSH2 0x55 PUSH1 0x4 DUP1 CALLDATASIZE SUB DUP2 ADD SWAP1 PUSH2 0x50 SWAP2 SWAP1 PUSH2 0x304 JUMP JUMPDEST PUSH2 0x75 JUMP JUMPDEST STOP JUMPDEST PUSH2 0x5F PUSH2 0x118 JUMP JUMPDEST PUSH1 0x40 MLOAD PUSH2 0x6C SWAP2 SWAP1 PUSH2 0x3CC JUMP JUMPDEST PUSH1 0x40 MLOAD DUP1 SWAP2 SUB SWAP1 RETURN JUMPDEST PUSH1 0x1 PUSH1 0x0 SWAP1 SLOAD SWAP1 PUSH2 0x100 EXP SWAP1 DIV PUSH20 0xFFFFFFFFFFFFFFFFFFFFFFFFFFFFFFFFFFFFFFFF AND PUSH20 0xFFFFFFFFFFFFFFFFFFFFFFFFFFFFFFFFFFFFFFFF AND CALLER PUSH20 0xFFFFFFFFFFFFFFFFFFFFFFFFFFFFFFFFFFFFFFFF AND EQ PUSH2 0x105 JUMPI PUSH1 0x40 MLOAD PUSH32 0x8C379A000000000000000000000000000000000000000000000000000000000 DUP2 MSTORE PUSH1 0x4 ADD PUSH2 0xFC SWAP1 PUSH2 0x43A JUMP JUMPDEST PUSH1 0x40 MLOAD DUP1 SWAP2 SUB SWAP1 REVERT JUMPDEST DUP1 PUSH1 0x0 SWAP1 DUP2 PUSH2 0x114 SWAP2 SWAP1 PUSH2 0x670 JUMP JUMPDEST POP POP JUMP JUMPDEST PUSH1 0x60 PUSH1 0x0 DUP1 SLOAD PUSH2 0x127 SWAP1 PUSH2 0x489 JUMP JUMPDEST DUP1 PUSH1 0x1F ADD PUSH1 0x20 DUP1 SWAP2 DIV MUL PUSH1 0x20 ADD PUSH1 0x40 MLOAD SWAP1 DUP2 ADD PUSH1 0x40 MSTORE DUP1 SWAP3 SWAP2 SWAP1 DUP2 DUP2 MSTORE PUSH1 0x20 ADD DUP3 DUP1 SLOAD PUSH2 0x153 SWAP1 PUSH2 0x489 JUMP JUMPDEST DUP1 ISZERO PUSH2 0x1A0 JUMPI DUP1 PUSH1 0x1F LT PUSH2 0x175 JUMPI PUSH2 0x100 DUP1 DUP4 SLOAD DIV MUL DUP4 MSTORE SWAP2 PUSH1 0x20 ADD SWAP2 PUSH2 0x1A0 JUMP JUMPDEST DUP3 ADD SWAP2 SWAP1 PUSH1 0x0 MSTORE PUSH1 0x20 PUSH1 0x0 KECCAK256 SWAP1 JUMPDEST DUP2 SLOAD DUP2 MSTORE SWAP1 PUSH1 0x1 ADD SWAP1 PUSH1 0x20 ADD DUP1 DUP4 GT PUSH2 0x183 JUMPI DUP3 SWAP1 SUB PUSH1 0x1F AND DUP3 ADD SWAP2 JUMPDEST POP POP POP POP POP SWAP1 POP SWAP1 JUMP JUMPDEST PUSH1 0x0 PUSH1 0x40 MLOAD SWAP1 POP SWAP1 JUMP JUMPDEST PUSH1 0x0 DUP1 REVERT JUMPDEST PUSH1 0x0 DUP1 REVERT JUMPDEST PUSH1 0x0 DUP1 REVERT JUMPDEST PUSH1 0x0 DUP1 REVERT JUMPDEST PUSH1 0x0 PUSH1 0x1F NOT PUSH1 0x1F DUP4 ADD AND SWAP1 POP SWAP2 SWAP1 POP JUMP JUMPDEST PUSH32 0x4E487B7100000000000000000000000000000000000000000000000000000000 PUSH1 0x0 MSTORE PUSH1 0x41 PUSH1 0x4 MSTORE PUSH1 0x24 PUSH1 0x0 REVERT JUMPDEST PUSH2 0x211 DUP3 PUSH2 0x1C8 JUMP JUMPDEST DUP2 ADD DUP2 DUP2 LT PUSH8 0xFFFFFFFFFFFFFFFF DUP3 GT OR ISZERO PUSH2 0x230 JUMPI PUSH2 0x22F PUSH2 0x1D9 JUMP JUMPDEST JUMPDEST DUP1 PUSH1 0x40 MSTORE POP POP POP JUMP JUMPDEST PUSH1 0x0 PUSH2 0x243 PUSH2 0x1AA JUMP JUMPDEST SWAP1 POP PUSH2 0x24F DUP3 DUP3 PUSH2 0x208 JUMP JUMPDEST SWAP2 SWAP1 POP JUMP JUMPDEST PUSH1 0x0 PUSH8 0xFFFFFFFFFFFFFFFF DUP3 GT ISZERO PUSH2 0x26F JUMPI PUSH2 0x26E PUSH2 0x1D9 JUMP JUMPDEST JUMPDEST PUSH2 0x278 DUP3 PUSH2 0x1C8 JUMP JUMPDEST SWAP1 POP PUSH1 0x20 DUP2 ADD SWAP1 POP SWAP2 SWAP1 POP JUMP JUMPDEST DUP3 DUP2 DUP4 CALLDATACOPY PUSH1 0x0 DUP4 DUP4 ADD MSTORE POP POP POP JUMP JUMPDEST PUSH1 0x0 PUSH2 0x2A7 PUSH2 0x2A2 DUP5 PUSH2 0x254 JUMP JUMPDEST PUSH2 0x239 JUMP JUMPDEST SWAP1 POP DUP3 DUP2 MSTORE PUSH1 0x20 DUP2 ADD DUP5 DUP5 DUP5 ADD GT ISZERO PUSH2 0x2C3 JUMPI PUSH2 0x2C2 PUSH2 0x1C3 JUMP JUMPDEST JUMPDEST PUSH2 0x2CE DUP5 DUP3 DUP6 PUSH2 0x285 JUMP JUMPDEST POP SWAP4 SWAP3 POP POP POP JUMP JUMPDEST PUSH1 0x0 DUP3 PUSH1 0x1F DUP4 ADD SLT PUSH2 0x2EB JUMPI PUSH2 0x2EA PUSH2 0x1BE JUMP JUMPDEST JUMPDEST DUP2 CALLDATALOAD PUSH2 0x2FB DUP5 DUP3 PUSH1 0x20 DUP7 ADD PUSH2 0x294 JUMP JUMPDEST SWAP2 POP POP SWAP3 SWAP2 POP POP JUMP JUMPDEST PUSH1 0x0 PUSH1 0x20 DUP3 DUP5 SUB SLT ISZERO PUSH2 0x31A JUMPI PUSH2 0x319 PUSH2 0x1B4 JUMP JUMPDEST JUMPDEST PUSH1 0x0 DUP3 ADD CALLDATALOAD PUSH8 0xFFFFFFFFFFFFFFFF DUP2 GT ISZERO PUSH2 0x338 JUMPI PUSH2 0x337 PUSH2 0x1B9 JUMP JUMPDEST JUMPDEST PUSH2 0x344 DUP5 DUP3 DUP6 ADD PUSH2 0x2D6 JUMP JUMPDEST SWAP2 POP POP SWAP3 SWAP2 POP POP JUMP JUMPDEST PUSH1 0x0 DUP2 MLOAD SWAP1 POP SWAP2 SWAP1 POP JUMP JUMPDEST PUSH1 0x0 DUP3 DUP3 MSTORE PUSH1 0x20 DUP3 ADD SWAP1 POP SWAP3 SWAP2 POP POP JUMP JUMPDEST PUSH1 0x0 JUMPDEST DUP4 DUP2 LT ISZERO PUSH2 0x387 JUMPI DUP1 DUP3 ADD MLOAD DUP2 DUP5 ADD MSTORE PUSH1 0x20 DUP2 ADD SWAP1 POP PUSH2 0x36C JUMP JUMPDEST PUSH1 0x0 DUP5 DUP5 ADD MSTORE POP POP POP POP JUMP JUMPDEST PUSH1 0x0 PUSH2 0x39E DUP3 PUSH2 0x34D JUMP JUMPDEST PUSH2 0x3A8 DUP2 DUP6 PUSH2 0x358 JUMP JUMPDEST SWAP4 POP PUSH2 0x3B8 DUP2 DUP6 PUSH1 0x20 DUP7 ADD PUSH2 0x369 JUMP JUMPDEST PUSH2 0x3C1 DUP2 PUSH2 0x1C8 JUMP JUMPDEST DUP5 ADD SWAP2 POP POP SWAP3 SWAP2 POP POP JUMP JUMPDEST PUSH1 0x0 PUSH1 0x20 DUP3 ADD SWAP1 POP DUP2 DUP2 SUB PUSH1 0x0 DUP4 ADD MSTORE PUSH2 0x3E6 DUP2 DUP5 PUSH2 0x393 JUMP JUMPDEST SWAP1 POP SWAP3 SWAP2 POP POP JUMP JUMPDEST PUSH32 0x4F6E6C792061646D696E2063616E2073657420746865206D6573736167650000 PUSH1 0x0 DUP3 ADD MSTORE POP JUMP JUMPDEST PUSH1 0x0 PUSH2 0x424 PUSH1 0x1E DUP4 PUSH2 0x358 JUMP JUMPDEST SWAP2 POP PUSH2 0x42F DUP3 PUSH2 0x3EE JUMP JUMPDEST PUSH1 0x20 DUP3 ADD SWAP1 POP SWAP2 SWAP1 POP JUMP JUMPDEST PUSH1 0x0 PUSH1 0x20 DUP3 ADD SWAP1 POP DUP2 DUP2 SUB PUSH1 0x0 DUP4 ADD MSTORE PUSH2 0x453 DUP2 PUSH2 0x417 JUMP JUMPDEST SWAP1 POP SWAP2 SWAP1 POP JUMP JUMPDEST PUSH32 0x4E487B7100000000000000000000000000000000000000000000000000000000 PUSH1 0x0 MSTORE PUSH1 0x22 PUSH1 0x4 MSTORE PUSH1 0x24 PUSH1 0x0 REVERT JUMPDEST PUSH1 0x0 PUSH1 0x2 DUP3 DIV SWAP1 POP PUSH1 0x1 DUP3 AND DUP1 PUSH2 0x4A1 JUMPI PUSH1 0x7F DUP3 AND SWAP2 POP JUMPDEST PUSH1 0x20 DUP3 LT DUP2 SUB PUSH2 0x4B4 JUMPI PUSH2 0x4B3 PUSH2 0x45A JUMP JUMPDEST JUMPDEST POP SWAP2 SWAP1 POP JUMP JUMPDEST PUSH1 0x0 DUP2 SWAP1 POP DUP2 PUSH1 0x0 MSTORE PUSH1 0x20 PUSH1 0x0 KECCAK256 SWAP1 POP SWAP2 SWAP1 POP JUMP JUMPDEST PUSH1 0x0 PUSH1 0x20 PUSH1 0x1F DUP4 ADD DIV SWAP1 POP SWAP2 SWAP1 POP JUMP JUMPDEST PUSH1 0x0 DUP3 DUP3 SHL SWAP1 POP SWAP3 SWAP2 POP POP JUMP JUMPDEST PUSH1 0x0 PUSH1 0x8 DUP4 MUL PUSH2 0x51C PUSH32 0xFFFFFFFFFFFFFFFFFFFFFFFFFFFFFFFFFFFFFFFFFFFFFFFFFFFFFFFFFFFFFFFF DUP3 PUSH2 0x4DF JUMP JUMPDEST PUSH2 0x526 DUP7 DUP4 PUSH2 0x4DF JUMP JUMPDEST SWAP6 POP DUP1 NOT DUP5 AND SWAP4 POP DUP1 DUP7 AND DUP5 OR SWAP3 POP POP POP SWAP4 SWAP3 POP POP POP JUMP JUMPDEST PUSH1 0x0 DUP2 SWAP1 POP SWAP2 SWAP1 POP JUMP JUMPDEST PUSH1 0x0 DUP2 SWAP1 POP SWAP2 SWAP1 POP JUMP JUMPDEST PUSH1 0x0 PUSH2 0x56D PUSH2 0x568 PUSH2 0x563 DUP5 PUSH2 0x53E JUMP JUMPDEST PUSH2 0x548 JUMP JUMPDEST PUSH2 0x53E JUMP JUMPDEST SWAP1 POP SWAP2 SWAP1 POP JUMP JUMPDEST PUSH1 0x0 DUP2 SWAP1 POP SWAP2 SWAP1 POP JUMP JUMPDEST PUSH2 0x587 DUP4 PUSH2 0x552 JUMP JUMPDEST PUSH2 0x59B PUSH2 0x593 DUP3 PUSH2 0x574 JUMP JUMPDEST DUP5 DUP5 SLOAD PUSH2 0x4EC JUMP JUMPDEST DUP3 SSTORE POP POP POP POP JUMP JUMPDEST PUSH1 0x0 SWAP1 JUMP JUMPDEST PUSH2 0x5B0 PUSH2 0x5A3 JUMP JUMPDEST PUSH2 0x5BB DUP2 DUP5 DUP5 PUSH2 0x57E JUMP JUMPDEST POP POP POP JUMP JUMPDEST JUMPDEST DUP2 DUP2 LT ISZERO PUSH2 0x5DF JUMPI PUSH2 0x5D4 PUSH1 0x0 DUP3 PUSH2 0x5A8 JUMP JUMPDEST PUSH1 0x1 DUP2 ADD SWAP1 POP PUSH2 0x5C1 JUMP JUMPDEST POP POP JUMP JUMPDEST PUSH1 0x1F DUP3 GT ISZERO PUSH2 0x624 JUMPI PUSH2 0x5F5 DUP2 PUSH2 0x4BA JUMP JUMPDEST PUSH2 0x5FE DUP5 PUSH2 0x4CF JUMP JUMPDEST DUP2 ADD PUSH1 0x20 DUP6 LT ISZERO PUSH2 0x60D JUMPI DUP2 SWAP1 POP JUMPDEST PUSH2 0x621 PUSH2 0x619 DUP6 PUSH2 0x4CF JUMP JUMPDEST DUP4 ADD DUP3 PUSH2 0x5C0 JUMP JUMPDEST POP POP JUMPDEST POP POP POP JUMP JUMPDEST PUSH1 0x0 DUP3 DUP3 SHR SWAP1 POP SWAP3 SWAP2 POP POP JUMP JUMPDEST PUSH1 0x0 PUSH2 0x647 PUSH1 0x0 NOT DUP5 PUSH1 0x8 MUL PUSH2 0x629 JUMP JUMPDEST NOT DUP1 DUP4 AND SWAP2 POP POP SWAP3 SWAP2 POP POP JUMP JUMPDEST PUSH1 0x0 PUSH2 0x660 DUP4 DUP4 PUSH2 0x636 JUMP JUMPDEST SWAP2 POP DUP3 PUSH1 0x2 MUL DUP3 OR SWAP1 POP SWAP3 SWAP2 POP POP JUMP JUMPDEST PUSH2 0x679 DUP3 PUSH2 0x34D JUMP JUMPDEST PUSH8 0xFFFFFFFFFFFFFFFF DUP2 GT ISZERO PUSH2 0x692 JUMPI PUSH2 0x691 PUSH2 0x1D9 JUMP JUMPDEST JUMPDEST PUSH2 0x69C DUP3 SLOAD PUSH2 0x489 JUMP JUMPDEST PUSH2 0x6A7 DUP3 DUP3 DUP6 PUSH2 0x5E3 JUMP JUMPDEST PUSH1 0x0 PUSH1 0x20 SWAP1 POP PUSH1 0x1F DUP4 GT PUSH1 0x1 DUP2 EQ PUSH2 0x6DA JUMPI PUSH1 0x0 DUP5 ISZERO PUSH2 0x6C8 JUMPI DUP3 DUP8 ADD MLOAD SWAP1 POP JUMPDEST PUSH2 0x6D2 DUP6 DUP3 PUSH2 0x654 JUMP JUMPDEST DUP7 SSTORE POP PUSH2 0x73A JUMP JUMPDEST PUSH1 0x1F NOT DUP5 AND PUSH2 0x6E8 DUP7 PUSH2 0x4BA JUMP JUMPDEST PUSH1 0x0 JUMPDEST DUP3 DUP2 LT ISZERO PUSH2 0x710 JUMPI DUP5 DUP10 ADD MLOAD DUP3 SSTORE PUSH1 0x1 DUP3 ADD SWAP2 POP PUSH1 0x20 DUP6 ADD SWAP5 POP PUSH1 0x20 DUP2 ADD SWAP1 POP PUSH2 0x6EB JUMP JUMPDEST DUP7 DUP4 LT ISZERO PUSH2 0x72D JUMPI DUP5 DUP10 ADD MLOAD PUSH2 0x729 PUSH1 0x1F DUP10 AND DUP3 PUSH2 0x636 JUMP JUMPDEST DUP4 SSTORE POP JUMPDEST PUSH1 0x1 PUSH1 0x2 DUP9 MUL ADD DUP9 SSTORE POP POP POP JUMPDEST POP POP POP POP POP POP JUMP INVALID LOG2 PUSH5 0x6970667358 0x22 SLT KECCAK256 SWAP8 SHR SWAP9 CALLDATALOAD 0xA8 0xB3 0x2D EXTCODECOPY SGT 0xD9 MSIZE 0xA5 0xEC 0xAE CODECOPY SDIV 0x25 0xEA DUP8 SWAP13 0xEA 0xBC PUSH4 0xAB79E68E SWAP9 SLOAD SWAP12 0x1E 0xB3 PUSH5 0x736F6C6343 STOP ADDMOD EQ STOP CALLER "},"methodIdentifiers":{"getMessage()":"ce6d41de","setMessage(string)":"368b8772"}}}}}