{
  "_format": "hh-sol-artifact-1",
  "contractName": "LendingPool",
  "sourceName": "contracts/LendingPool.sol",
  "abi": [
    {
      "inputs": [
        {
          "internalType": "address",
          "name": "_tokenAddress",
          "type": "address"
        }
      ],
      "stateMutability": "nonpayable",
      "type": "constructor"
    },
    {
      "anonymous": false,
      "inputs": [
        {
          "indexed": true,
          "internalType": "address",
          "name": "borrower",
          "type": "address"
        },
        {
          "indexed": false,
          "internalType": "uint256",
          "name": "amount",
          "type": "uint256"
        },
        {
          "indexed": false,
          "internalType": "string",
          "name": "userId",
          "type": "string"
        },
        {
          "indexed": false,
          "internalType": "string",
          "name": "invoiceId",
          "type": "string"
        }
      ],
      "name": "Borrow",
      "type": "event"
    },
    {
      "anonymous": false,
      "inputs": [
        {
          "indexed": true,
          "internalType": "address",
          "name": "lender",
          "type": "address"
        },
        {
          "indexed": false,
          "internalType": "uint256",
          "name": "amount",
          "type": "uint256"
        }
      ],
      "name": "Deposit",
      "type": "event"
    },
    {
      "anonymous": false,
      "inputs": [
        {
          "indexed": true,
          "internalType": "address",
          "name": "borrower",
          "type": "address"
        },
        {
          "indexed": false,
          "internalType": "uint256",
          "name": "amount",
          "type": "uint256"
        },
        {
          "indexed": false,
          "internalType": "string",
          "name": "userId",
          "type": "string"
        },
        {
          "indexed": false,
          "internalType": "string",
          "name": "invoiceId",
          "type": "string"
        },
        {
          "indexed": false,
          "internalType": "bool",
          "name": "payed",
          "type": "bool"
        }
      ],
      "name": "LonePayed",
      "type": "event"
    },
    {
      "inputs": [
        {
          "internalType": "address",
          "name": "",
          "type": "address"
        }
      ],
      "name": "balances",
      "outputs": [
        {
          "internalType": "uint256",
          "name": "",
          "type": "uint256"
        }
      ],
      "stateMutability": "view",
      "type": "function"
    },
    {
      "inputs": [
        {
          "internalType": "address",
          "name": "_borrower",
          "type": "address"
        },
        {
          "internalType": "uint256",
          "name": "_amount",
          "type": "uint256"
        },
        {
          "internalType": "string",
          "name": "_userId",
          "type": "string"
        },
        {
          "internalType": "string",
          "name": "_invoiceId",
          "type": "string"
        }
      ],
      "name": "borrow",
      "outputs": [],
      "stateMutability": "nonpayable",
      "type": "function"
    },
    {
      "inputs": [
        {
          "internalType": "uint256",
          "name": "_amount",
          "type": "uint256"
        }
      ],
      "name": "deposit",
      "outputs": [],
      "stateMutability": "payable",
      "type": "function"
    },
    {
      "inputs": [
        {
          "internalType": "address",
          "name": "_token",
          "type": "address"
        }
      ],
      "name": "getTotalBalance",
      "outputs": [
        {
          "internalType": "uint256",
          "name": "",
          "type": "uint256"
        }
      ],
      "stateMutability": "view",
      "type": "function"
    },
    {
      "inputs": [
        {
          "internalType": "address",
          "name": "_account",
          "type": "address"
        }
      ],
      "name": "getfunds",
      "outputs": [
        {
          "internalType": "uint256",
          "name": "",
          "type": "uint256"
        }
      ],
      "stateMutability": "view",
      "type": "function"
    },
    {
      "inputs": [
        {
          "internalType": "address",
          "name": "",
          "type": "address"
        }
      ],
      "name": "loans",
      "outputs": [
        {
          "internalType": "address",
          "name": "borrower",
          "type": "address"
        },
        {
          "internalType": "uint256",
          "name": "amount",
          "type": "uint256"
        },
        {
          "internalType": "string",
          "name": "userId",
          "type": "string"
        },
        {
          "internalType": "string",
          "name": "invoiceId",
          "type": "string"
        },
        {
          "internalType": "bool",
          "name": "payed",
          "type": "bool"
        }
      ],
      "stateMutability": "view",
      "type": "function"
    },
    {
      "inputs": [
        {
          "internalType": "address payable",
          "name": "_borrower",
          "type": "address"
        },
        {
          "internalType": "uint256",
          "name": "_amount",
          "type": "uint256"
        },
        {
          "internalType": "string",
          "name": "_userId",
          "type": "string"
        },
        {
          "internalType": "string",
          "name": "_invoiceId",
          "type": "string"
        }
      ],
      "name": "payLone",
      "outputs": [],
      "stateMutability": "nonpayable",
      "type": "function"
    },
    {
      "inputs": [],
      "name": "tokenAddress",
      "outputs": [
        {
          "internalType": "address",
          "name": "",
          "type": "address"
        }
      ],
      "stateMutability": "view",
      "type": "function"
    },
    {
      "inputs": [
        {
          "internalType": "uint256",
          "name": "_amount",
          "type": "uint256"
        }
      ],
      "name": "withdrawFunds",
      "outputs": [],
      "stateMutability": "nonpayable",
      "type": "function"
    }
  ],
  "bytecode": "0x6080604052670de0b6b3a76400006000553480156200001d57600080fd5b50604051620021ca380380620021ca8339818101604052810190620000439190620000f5565b80600160006101000a81548173ffffffffffffffffffffffffffffffffffffffff021916908373ffffffffffffffffffffffffffffffffffffffff1602179055505062000127565b600080fd5b600073ffffffffffffffffffffffffffffffffffffffff82169050919050565b6000620000bd8262000090565b9050919050565b620000cf81620000b0565b8114620000db57600080fd5b50565b600081519050620000ef81620000c4565b92915050565b6000602082840312156200010e576200010d6200008b565b5b60006200011e84828501620000de565b91505092915050565b61209380620001376000396000f3fe6080604052600436106100865760003560e01c806373b4086b1161005957806373b4086b146101435780639d76ea5814610184578063b6b55f25146101af578063d3d38193146101cb578063f33bde7f1461020857610086565b8063155dd5ee1461008b57806327e235e3146100b457806356f217a9146100f15780636da357d21461011a575b600080fd5b34801561009757600080fd5b506100b260048036038101906100ad9190611228565b610245565b005b3480156100c057600080fd5b506100db60048036038101906100d691906112b3565b61040a565b6040516100e891906112ef565b60405180910390f35b3480156100fd57600080fd5b506101186004803603810190610113919061148e565b610422565b005b34801561012657600080fd5b50610141600480360381019061013c919061152d565b610767565b005b34801561014f57600080fd5b5061016a600480360381019061016591906112b3565b610de7565b60405161017b959493929190611675565b60405180910390f35b34801561019057600080fd5b50610199610f5a565b6040516101a691906116d6565b60405180910390f35b6101c960048036038101906101c49190611228565b610f80565b005b3480156101d757600080fd5b506101f260048036038101906101ed91906112b3565b61110d565b6040516101ff91906112ef565b60405180910390f35b34801561021457600080fd5b5061022f600480360381019061022a91906112b3565b611195565b60405161023c91906112ef565b60405180910390f35b6000600260003373ffffffffffffffffffffffffffffffffffffffff1673ffffffffffffffffffffffffffffffffffffffff168152602001908152602001600020549050600081116102cc576040517f08c379a00000000000000000000000000000000000000000000000000000000081526004016102c39061173d565b60405180910390fd5b8082111561030f576040517f08c379a0000000000000000000000000000000000000000000000000000000008152600401610306906117cf565b60405180910390fd5b81600260003373ffffffffffffffffffffffffffffffffffffffff1673ffffffffffffffffffffffffffffffffffffffff168152602001908152602001600020600082825461035e919061181e565b92505081905550600160009054906101000a900473ffffffffffffffffffffffffffffffffffffffff1673ffffffffffffffffffffffffffffffffffffffff1663a9059cbb33846040518363ffffffff1660e01b81526004016103c2929190611852565b6020604051808303816000875af11580156103e1573d6000803e3d6000fd5b505050506040513d601f19601f8201168201806040525081019061040591906118a7565b505050565b60026020528060005260406000206000915090505481565b600073ffffffffffffffffffffffffffffffffffffffff16600360008673ffffffffffffffffffffffffffffffffffffffff1673ffffffffffffffffffffffffffffffffffffffff16815260200190815260200160002060000160009054906101000a900473ffffffffffffffffffffffffffffffffffffffff1673ffffffffffffffffffffffffffffffffffffffff16036104f3576040517f08c379a00000000000000000000000000000000000000000000000000000000081526004016104ea90611920565b60405180910390fd5b60001515600360008673ffffffffffffffffffffffffffffffffffffffff1673ffffffffffffffffffffffffffffffffffffffff16815260200190815260200160002060040160009054906101000a900460ff16151514610589576040517f08c379a0000000000000000000000000000000000000000000000000000000008152600401610580906119b2565b60405180910390fd5b600360008573ffffffffffffffffffffffffffffffffffffffff1673ffffffffffffffffffffffffffffffffffffffff1681526020019081526020016000206001015483101561060e576040517f08c379a000000000000000000000000000000000000000000000000000000000815260040161060590611a1e565b60405180910390fd5b600160009054906101000a900473ffffffffffffffffffffffffffffffffffffffff1673ffffffffffffffffffffffffffffffffffffffff166323b872dd3330866040518463ffffffff1660e01b815260040161066d93929190611a3e565b6020604051808303816000875af115801561068c573d6000803e3d6000fd5b505050506040513d601f19601f820116820180604052508101906106b091906118a7565b506001600360008673ffffffffffffffffffffffffffffffffffffffff1673ffffffffffffffffffffffffffffffffffffffff16815260200190815260200160002060040160006101000a81548160ff0219169083151502179055508373ffffffffffffffffffffffffffffffffffffffff167fa6ca4b78eef8aee9057eca13ba7feecc5afc92922268cc19ff7558ee14aa105684848460016040516107599493929190611a75565b60405180910390a250505050565b600083116107aa576040517f08c379a00000000000000000000000000000000000000000000000000000000081526004016107a190611b3a565b60405180910390fd5b82600160009054906101000a900473ffffffffffffffffffffffffffffffffffffffff1673ffffffffffffffffffffffffffffffffffffffff166370a08231306040518263ffffffff1660e01b815260040161080691906116d6565b602060405180830381865afa158015610823573d6000803e3d6000fd5b505050506040513d601f19601f820116820180604052508101906108479190611b6f565b1015610888576040517f08c379a000000000000000000000000000000000000000000000000000000000815260040161087f90611be8565b60405180910390fd5b600073ffffffffffffffffffffffffffffffffffffffff16600360008673ffffffffffffffffffffffffffffffffffffffff1673ffffffffffffffffffffffffffffffffffffffff16815260200190815260200160002060000160009054906101000a900473ffffffffffffffffffffffffffffffffffffffff1673ffffffffffffffffffffffffffffffffffffffff1603610b35576040518060a001604052808573ffffffffffffffffffffffffffffffffffffffff16815260200184815260200183815260200182815260200160001515815250600360008673ffffffffffffffffffffffffffffffffffffffff1673ffffffffffffffffffffffffffffffffffffffff16815260200190815260200160002060008201518160000160006101000a81548173ffffffffffffffffffffffffffffffffffffffff021916908373ffffffffffffffffffffffffffffffffffffffff160217905550602082015181600101556040820151816002019081610a039190611e14565b506060820151816003019081610a199190611e14565b5060808201518160040160006101000a81548160ff021916908315150217905550905050600160009054906101000a900473ffffffffffffffffffffffffffffffffffffffff1673ffffffffffffffffffffffffffffffffffffffff1663a9059cbb85856040518363ffffffff1660e01b8152600401610a9a929190611852565b6020604051808303816000875af1158015610ab9573d6000803e3d6000fd5b505050506040513d601f19601f82011682018060405250810190610add91906118a7565b508373ffffffffffffffffffffffffffffffffffffffff167f67948eb623a2f638d8e5d2b5388fd9692bfbccaf99d246c99c63b1c6bda48eaf848484604051610b2893929190611ee6565b60405180910390a2610de1565b6001600360008673ffffffffffffffffffffffffffffffffffffffff1673ffffffffffffffffffffffffffffffffffffffff16815260200190815260200160002060040160006101000a81548160ff0219169083151502179055610bce576040517f08c379a0000000000000000000000000000000000000000000000000000000008152600401610bc590611f77565b60405180910390fd5b6040518060a001604052808573ffffffffffffffffffffffffffffffffffffffff16815260200184815260200183815260200182815260200160001515815250600360008673ffffffffffffffffffffffffffffffffffffffff1673ffffffffffffffffffffffffffffffffffffffff16815260200190815260200160002060008201518160000160006101000a81548173ffffffffffffffffffffffffffffffffffffffff021916908373ffffffffffffffffffffffffffffffffffffffff160217905550602082015181600101556040820151816002019081610cb39190611e14565b506060820151816003019081610cc99190611e14565b5060808201518160040160006101000a81548160ff021916908315150217905550905050600160009054906101000a900473ffffffffffffffffffffffffffffffffffffffff1673ffffffffffffffffffffffffffffffffffffffff1663a9059cbb85856040518363ffffffff1660e01b8152600401610d4a929190611852565b6020604051808303816000875af1158015610d69573d6000803e3d6000fd5b505050506040513d601f19601f82011682018060405250810190610d8d91906118a7565b508373ffffffffffffffffffffffffffffffffffffffff167f67948eb623a2f638d8e5d2b5388fd9692bfbccaf99d246c99c63b1c6bda48eaf848484604051610dd893929190611ee6565b60405180910390a25b50505050565b60036020528060005260406000206000915090508060000160009054906101000a900473ffffffffffffffffffffffffffffffffffffffff1690806001015490806002018054610e3690611c37565b80601f0160208091040260200160405190810160405280929190818152602001828054610e6290611c37565b8015610eaf5780601f10610e8457610100808354040283529160200191610eaf565b820191906000526020600020905b815481529060010190602001808311610e9257829003601f168201915b505050505090806003018054610ec490611c37565b80601f0160208091040260200160405190810160405280929190818152602001828054610ef090611c37565b8015610f3d5780601f10610f1257610100808354040283529160200191610f3d565b820191906000526020600020905b815481529060010190602001808311610f2057829003601f168201915b5050505050908060040160009054906101000a900460ff16905085565b600160009054906101000a900473ffffffffffffffffffffffffffffffffffffffff1681565b60008111610fc3576040517f08c379a0000000000000000000000000000000000000000000000000000000008152600401610fba90612009565b60405180910390fd5b600160009054906101000a900473ffffffffffffffffffffffffffffffffffffffff1673ffffffffffffffffffffffffffffffffffffffff166323b872dd3330846040518463ffffffff1660e01b815260040161102293929190611a3e565b6020604051808303816000875af1158015611041573d6000803e3d6000fd5b505050506040513d601f19601f8201168201806040525081019061106591906118a7565b5080600260003373ffffffffffffffffffffffffffffffffffffffff1673ffffffffffffffffffffffffffffffffffffffff16815260200190815260200160002060008282546110b59190612029565b925050819055503373ffffffffffffffffffffffffffffffffffffffff167fe1fffcc4923d04b559f4d29a8bfc6cda04eb5b0d3c460751c2402c5c5cc9109c8260405161110291906112ef565b60405180910390a250565b6000808273ffffffffffffffffffffffffffffffffffffffff166370a08231306040518263ffffffff1660e01b815260040161114991906116d6565b602060405180830381865afa158015611166573d6000803e3d6000fd5b505050506040513d601f19601f8201168201806040525081019061118a9190611b6f565b905080915050919050565b6000600260008373ffffffffffffffffffffffffffffffffffffffff1673ffffffffffffffffffffffffffffffffffffffff168152602001908152602001600020549050919050565b6000604051905090565b600080fd5b600080fd5b6000819050919050565b611205816111f2565b811461121057600080fd5b50565b600081359050611222816111fc565b92915050565b60006020828403121561123e5761123d6111e8565b5b600061124c84828501611213565b91505092915050565b600073ffffffffffffffffffffffffffffffffffffffff82169050919050565b600061128082611255565b9050919050565b61129081611275565b811461129b57600080fd5b50565b6000813590506112ad81611287565b92915050565b6000602082840312156112c9576112c86111e8565b5b60006112d78482850161129e565b91505092915050565b6112e9816111f2565b82525050565b600060208201905061130460008301846112e0565b92915050565b600061131582611255565b9050919050565b6113258161130a565b811461133057600080fd5b50565b6000813590506113428161131c565b92915050565b600080fd5b600080fd5b6000601f19601f8301169050919050565b7f4e487b7100000000000000000000000000000000000000000000000000000000600052604160045260246000fd5b61139b82611352565b810181811067ffffffffffffffff821117156113ba576113b9611363565b5b80604052505050565b60006113cd6111de565b90506113d98282611392565b919050565b600067ffffffffffffffff8211156113f9576113f8611363565b5b61140282611352565b9050602081019050919050565b82818337600083830152505050565b600061143161142c846113de565b6113c3565b90508281526020810184848401111561144d5761144c61134d565b5b61145884828561140f565b509392505050565b600082601f83011261147557611474611348565b5b813561148584826020860161141e565b91505092915050565b600080600080608085870312156114a8576114a76111e8565b5b60006114b687828801611333565b94505060206114c787828801611213565b935050604085013567ffffffffffffffff8111156114e8576114e76111ed565b5b6114f487828801611460565b925050606085013567ffffffffffffffff811115611515576115146111ed565b5b61152187828801611460565b91505092959194509250565b60008060008060808587031215611547576115466111e8565b5b60006115558782880161129e565b945050602061156687828801611213565b935050604085013567ffffffffffffffff811115611587576115866111ed565b5b61159387828801611460565b925050606085013567ffffffffffffffff8111156115b4576115b36111ed565b5b6115c087828801611460565b91505092959194509250565b6115d581611275565b82525050565b600081519050919050565b600082825260208201905092915050565b60005b838110156116155780820151818401526020810190506115fa565b60008484015250505050565b600061162c826115db565b61163681856115e6565b93506116468185602086016115f7565b61164f81611352565b840191505092915050565b60008115159050919050565b61166f8161165a565b82525050565b600060a08201905061168a60008301886115cc565b61169760208301876112e0565b81810360408301526116a98186611621565b905081810360608301526116bd8185611621565b90506116cc6080830184611666565b9695505050505050565b60006020820190506116eb60008301846115cc565b92915050565b7f4e6f2066756e647320617661696c61626c6520746f2077697468647261770000600082015250565b6000611727601e836115e6565b9150611732826116f1565b602082019050919050565b600060208201905081810360008301526117568161171a565b9050919050565b7f5769746864726177616c20616d6f756e742065786365656473207374616b696e60008201527f672062616c616e63650000000000000000000000000000000000000000000000602082015250565b60006117b96029836115e6565b91506117c48261175d565b604082019050919050565b600060208201905081810360008301526117e8816117ac565b9050919050565b7f4e487b7100000000000000000000000000000000000000000000000000000000600052601160045260246000fd5b6000611829826111f2565b9150611834836111f2565b925082820390508181111561184c5761184b6117ef565b5b92915050565b600060408201905061186760008301856115cc565b61187460208301846112e0565b9392505050565b6118848161165a565b811461188f57600080fd5b50565b6000815190506118a18161187b565b92915050565b6000602082840312156118bd576118bc6111e8565b5b60006118cb84828501611892565b91505092915050565b7f4e6f206c6f616e20657869737420776974682074686973206163636f756e7400600082015250565b600061190a601f836115e6565b9150611915826118d4565b602082019050919050565b60006020820190508181036000830152611939816118fd565b9050919050565b7f6c6f616e20616c726561647920706179656420666f722074686973206163636f60008201527f756e740000000000000000000000000000000000000000000000000000000000602082015250565b600061199c6023836115e6565b91506119a782611940565b604082019050919050565b600060208201905081810360008301526119cb8161198f565b9050919050565b7f496e73756666696369656e742072657061796d656e7420616d6f756e74000000600082015250565b6000611a08601d836115e6565b9150611a13826119d2565b602082019050919050565b60006020820190508181036000830152611a37816119fb565b9050919050565b6000606082019050611a5360008301866115cc565b611a6060208301856115cc565b611a6d60408301846112e0565b949350505050565b6000608082019050611a8a60008301876112e0565b8181036020830152611a9c8186611621565b90508181036040830152611ab08185611621565b9050611abf6060830184611666565b95945050505050565b7f426f72726f7720616d6f756e74206d757374206265206772656174657220746860008201527f616e207a65726f00000000000000000000000000000000000000000000000000602082015250565b6000611b246027836115e6565b9150611b2f82611ac8565b604082019050919050565b60006020820190508181036000830152611b5381611b17565b9050919050565b600081519050611b69816111fc565b92915050565b600060208284031215611b8557611b846111e8565b5b6000611b9384828501611b5a565b91505092915050565b7f496e73756666696369656e742066756e647320696e2074686520706f6f6c0000600082015250565b6000611bd2601e836115e6565b9150611bdd82611b9c565b602082019050919050565b60006020820190508181036000830152611c0181611bc5565b9050919050565b7f4e487b7100000000000000000000000000000000000000000000000000000000600052602260045260246000fd5b60006002820490506001821680611c4f57607f821691505b602082108103611c6257611c61611c08565b5b50919050565b60008190508160005260206000209050919050565b60006020601f8301049050919050565b600082821b905092915050565b600060088302611cca7fffffffffffffffffffffffffffffffffffffffffffffffffffffffffffffffff82611c8d565b611cd48683611c8d565b95508019841693508086168417925050509392505050565b6000819050919050565b6000611d11611d0c611d07846111f2565b611cec565b6111f2565b9050919050565b6000819050919050565b611d2b83611cf6565b611d3f611d3782611d18565b848454611c9a565b825550505050565b600090565b611d54611d47565b611d5f818484611d22565b505050565b5b81811015611d8357611d78600082611d4c565b600181019050611d65565b5050565b601f821115611dc857611d9981611c68565b611da284611c7d565b81016020851015611db1578190505b611dc5611dbd85611c7d565b830182611d64565b50505b505050565b600082821c905092915050565b6000611deb60001984600802611dcd565b1980831691505092915050565b6000611e048383611dda565b9150826002028217905092915050565b611e1d826115db565b67ffffffffffffffff811115611e3657611e35611363565b5b611e408254611c37565b611e4b828285611d87565b600060209050601f831160018114611e7e5760008415611e6c578287015190505b611e768582611df8565b865550611ede565b601f198416611e8c86611c68565b60005b82811015611eb457848901518255600182019150602085019450602081019050611e8f565b86831015611ed15784890151611ecd601f891682611dda565b8355505b6001600288020188555050505b505050505050565b6000606082019050611efb60008301866112e0565b8181036020830152611f0d8185611621565b90508181036040830152611f218184611621565b9050949350505050565b7f506c656173652070617920746865206578697374696e67206c6f616e20000000600082015250565b6000611f61601d836115e6565b9150611f6c82611f2b565b602082019050919050565b60006020820190508181036000830152611f9081611f54565b9050919050565b7f4465706f73697420616d6f756e74206d7573742062652067726561746572207460008201527f68616e207a65726f000000000000000000000000000000000000000000000000602082015250565b6000611ff36028836115e6565b9150611ffe82611f97565b604082019050919050565b6000602082019050818103600083015261202281611fe6565b9050919050565b6000612034826111f2565b915061203f836111f2565b9250828201905080821115612057576120566117ef565b5b9291505056fea26469706673582212203595e37d4637fb420f83f308803d384fba2c30e145e3eda173ca97c4dc59a57664736f6c63430008140033",
  "linkReferences": {},
  "deployedLinkReferences": {}
}